:0600000002006B022A0D54
:03000B00022D06BD
:03001300022A605E
:01001B0032B2
:030023000229753A
:03002B00022F9F02
:01003300329A
:03003B00022AB3E3
:0300430002293659
:01004B003282
:030053000229C1BE
:01005B003272
:03006300022F9DCC
:03006600022B0763
:02006900E4733E
:0D006B00758133123324E5826003020066C4
:1000780079C2E94400601B7A019036AA78C575A058
:1000880001E493F2A308B8000205A0D9F4DAF275E6
:02009800A0FFC7
:06009A00E478FFF6D8FD3A
:1000A0007800E84400600A799475A000E4F309D868
:1000B000FC7831E84401600C7902900094E4F0A3EC
:0400C000D8FCD9FA95
:0200C400C20375
:0E00C6007808E4F608F608F608F6780C7600DE
:0200D400C20761
:0200D600C2085E
:0300D800020066BD
:1000DC00120BE412094B1201001209711208FC12E6
:1000EC00204290064D0223571202C91201421224DB
:1000FC007F02215790017F7402F075821F122B8AA8
:10010C0090017F7402F075821E122B8A90017F740D
:10011C0002F0758221122B8A75821F122C41AF823C
:10012C0075821EC007122C41AE82D007EF2FFF90B4
:10013C000211EE2FF02275821F122C41AF827582B4
:10014C001EC007122C41AE82D007EF2F2EFF90025B
:10015C0012F0900211E0FE75F008A42418FC740251
:10016C0035F0FDEF2FFB2CF582E43DF583E0FCA38D
:10017C00E0FDBC0122BD001F8FF005F07A017B0071
:10018C008006EA2AFAEB33FBD5F0F7900214E04A2A
:10019C00F0A3E04BF08023BCFF20BDFF1D8FF005CA
:1001AC00F07C017D008006EC2CFCED33FDD5F0F7E6
:1001BC00900216E04CF0A3E04DF0EEB507030202FE
:1001CC00C0BF030280030202C0900214E0FEA3E051
:1001DC00FFBE0B05BF00028016BE0D05BF000280DE
:1001EC000EBE0E05BF00028006BE0F50BF004D9024
:1001FC000210E0FF900213E09002102FF0E0248038
:10020C005006900210747FF09001CEE0FF9000A297
:10021C00E0FE900210E0FD900168EEF0900169EDB7
:10022C00F08F821227B0900210E09000DBF0E4A374
:10023C00F09000DD04F0900006120A47900216E0E0
:10024C00FEA3E0FFBE0B05BF00028016BE0D05BF6E
:10025C000002800EBE0E05BF00028006BE0F48BF16
:10026C000045900210E0FF900213E0FE900210EFA8
:10027C00C39EF09001CEE0FF9000A2E0FE90021031
:10028C00E0FD900168EEF0900169EDF08F8212278D
:10029C00B0900210E09000DBF0E4A3F09000DD04DD
:1002AC00F0900006120A47900214E4F0A3F09002BA
:1002BC0016F0A3F0900212E0900211F0227E007F63
:1002CC0000C3EE9407EF64809480400122EE24C7B3
:1002DC00F582EF3401F583E0F582C007C006122CDD
:1002EC0041AD82D006D0078D047D00EE2EFAEF339F
:1002FC00FBEA24D0F582EB3401F583E0FAA3E0FBB2
:10030C00ECB50206EDB503028041EE2EFAEF33FB9D
:10031C00EA2AFAEB33FBEA24F3F510EB3401F5117E
:10032C00C007C006C005C004122D86A882A983AAE6
:10033C00F0FBD004D005D006D00785108285118340
:10034C00E8F0E9A3F0EAA3F0EBA3F0C004C005C009
:10035C0007C006C005C004122D8685821285831342
:10036C0085F014F515D004D005D006D007EE2EFC80
:10037C00EF33FDEC2CFCED33FDEC24F3F582ED3486
:10038C0001F583E0FAA3E0FBA3E0FCA3E0FDE5129A
:10039C00C39AFAE5139BFBE5149CFCE5159DFDC384
:1003AC0074059AE49BE49CE49DD005D004400302C0
:1003BC00045DEE2EFAEF33FBEA24DEFAEB3401FB9C
:1003CC008A828B83E0F8A3E0F9ECB50007EDB50168
:1003DC000302045D8A828B83ECF0EDA3F08A828B9E
:1003EC0083E0FAA3E0FBEC4D70198E828F83C0077B
:1003FC00C006C005C00412047AD004D005D006D0C3
:10040C0007804EBA014BBB004890020FE07042EEE1
:10041C002494F582EF3400F583E0FBBB01198E02C6
:10042C008A82C007C006C005C004120531D004D0B2
:10043C0005D006D007801ABB03178E038B82C0072A
:10044C00C006C005C0041205ACD004D005D006D03F
:10045C0007EE2EFAEF33FBEA24D0F582EB3401F5EC
:10046C0083ECF0EDA3F00EBE00010F0202CDAF83C2
:10047C00E5829000CBF0EFA3F09000CBE0FEA3E080
:10048C00FFEE2494F582EF3400F583E0FDBD01020C
:10049C00800ABD0202800CBD034680398E058D8218
:1004AC000204EDEE24ECFCEF3401FD8C828D83E034
:1004BC00B4010092008C828D83A200E433F03000F2
:1004CC000D8E059000CF74BAF08D820205668E05F4
:1004DC008D820205AC9000CF742AF08E82020566E4
:1004EC0022E5829000CDF09001CEE0FF9000CDE0AF
:1004FC00FE249BF582E43400F583E0FD9001CFE00F
:10050C00FC900163EDF0900164ECF08F82C0061258
:10051C002743D0069000E074EAF09000E17401F0FB
:10052C008E82020B7BE5829000CEF09001CEE0FF34
:10053C009000CEE0FE249BF582E43400F583E0903D
:10054C000166F08F82C00612277CD0069000E0E492
:10055C00F09000E1F08E82020B7BE5829000D0F0EF
:10056C009001CEE0FF9000D0E0FE249BF582E434B5
:10057C0000F583E0FD9001CFE0FC900168EDF09078
:10058C000169ECF08F82C0061227B0D0069000CF24
:10059C00E09000E0F09000E17401F08E82020B7BA1
:1005AC00E5829000D1F09001CEE0FF9000D1E0FE0A
:1005BC00249BF582E43400F583E0900168F090010F
:1005CC0069E4F08F82C0061227B0D0069000E0E4F8
:1005DC00F09000E1F08E82020B7B7E007F00C3EE78
:1005EC009407EF648094805042EE2494F582EF34AB
:1005FC0000F583E00475F00AA4FD8E04EC2D04FDD7
:10060C00EE249BF582EF3400F583E0FC900168ED5D
:10061C00F0900169ECF075820AC007C0061227B091
:10062C00D006D0070EBE00B60F80B39000A2E0FF3C
:10063C009001687408F0900169EFF075820A022746
:10064C00B0122373AF829000D4EFF0BF0A02800186
:10065C0022BF0A0280030207979000D2E0FFBF6618
:10066C000280030207979000D3E0FFBF2A005003DB
:10067C00020797EF24CE5003020797EF24D6FF24EE
:10068C000A83F582EF240C83F583E473A8E93B4FCE
:10069C0063688094060607070707070790020F7424
:1006AC0001F07E007F00C3EE9407EF6480948050CD
:1006BC00268E059000D7E4F09000D874F0F09000EE
:1006CC00D9F4F08D82C007C0061209E4D006D00719
:1006DC000EBE00D20F80CF120A320207977E007F27
:1006EC0000C3EE9407EF6480948050278E05900031
:1006FC00D774F0F09000D8E4F09000D9740FF08D1E
:10070C0082C007C0061209E4D006D0070EBE00D185
:10071C000F80CE120A32120C699007D0E4F5F01259
:10072C002DC31209881205E690020FE4F0805C904C
:10073C0001687467F0900169743DF075820A1227A4
:10074C00B080489001687468F0900169740AF07583
:10075C00820A1227B080341205E6802F900213E033
:10076C00FF9001687469F0900169EFF075820A12CC
:10077C0027B08017900168746AF09001697405F0D5
:10078C0075820A1227B0800312090A90020FE0FF4B
:10079C00BF010280012212237AAF82C0071223818B
:1007AC00AE82D0077D00C007C006C005740AC0E049
:1007BC00E4C0E08F828D83123262AB821581158189
:1007CC00D005D006D007C006C003740AC0E0E4C050
:1007DC00E08F828D83123059AD8215811581D00343
:1007EC00D006ED14FFEB6011BB0400500CEF249409
:1007FC00F582E43400F583EBF0BE8000500CEF245E
:10080C009BF582E43400F583EEF0BF07059000A25F
:10081C00EEF0BB01028023BB02028036BB030280D8
:10082C0049BB04028075BB05030208C1BB06030269
:10083C0008DEBB1E02804B0208F99000D7E4F09052
:10084C0000D87496F09000D9F4F08F821209E4026B
:10085C0008F99000D7E4F09000D874C3F09000D958
:10086C00F4F08F821209E40208F99000D77460F05A
:10087C009000D8E4F09000D9749FF08F821209E4B4
:10088C00806B9000D77494F09000D8E4F09000D96D
:10089C007470F07582061209E480529000D774943B
:1008AC00F09000D87464F09000D97470F0758206E2
:1008BC001209E48038EE600ABE100050059001CE9B
:1008CC00EEF09001CEE0900176F07582001228F0E7
:1008DC00801BEE600ABE10005005900213EEF090E3
:1008EC000213E0900176F07582011228F0020A32B0
:1008FC00758221122C41E582700302090A227E00C6
:10090C007F00C3EE9407EF6480948050239000DB4B
:10091C00744AF0E4A3F09000DDF08E828F83C00760
:10092C00C006120A47D006D0070EBE00D50F80D2E3
:10093C00120A3275E200C2AF758900123800227FAC
:10094C0000BF0700501EEF24C7F582E43401F58385
:10095C00E0FE90017F7402F08E82C007122B8AD0C9
:10096C00070F80DD2290017F7401F0758222122B1B
:10097C008A900180E4F0758222022C917E007F0027
:10098C00C3EE9407EF6480948050238E059000D7BB
:10099C00E4F09000D8F09000D9F08D82C007C0062A
:1009AC001209E4D006D0070EBE00D50F80D2020A81
:1009BC0032AF83E5829000D5F0EFA3F09000D5E044
:1009CC00FEA3E09000D7E4F09000D8F09000D9F0AE
:1009DC008E821209E4020A32E5829000DAF0E0FF1E
:1009EC007E00C007C006900003122EFFAE82AF83BC
:1009FC0015811581EE24A2FEEF3400FF9000D7E0A4
:100A0C008E828F83F074012EFCE43FFD9000D8E0C1
:100A1C008C828D83F074022EFEE43FFF9000D9E0AF
:100A2C008E828F83F0227EA27F007D007C004305A6
:100A3C00158E828F838DF0EC022FA1AF83E582900F
:100A4C0000DEF0EFA3F09000DBE0FEA3E0FF9000EF
:100A5C00DB74FFC39EF0E49FA3F09000DBE0FEA3E9
:100A6C00E0FFC3EE9455EF64809480502DC006C017
:100A7C0007900003122EFFAE82AF83158115819073
:100A8C0000B774FFC39EF0E49FA3F09000B9E4F0AC
:100A9C00A3F09000BBEEF0EFA3F09000DBE0FEA320
:100AAC00E0FFC3EE94AAEF648094805045EE24AB33
:100ABC00FCEF34FFFD9000DBECF0EDA3F09000B701
:100ACC00E4F0A3F09000DBE0C0E0A3E0C0E0900015
:100ADC0003122EFFAC82AD83158115819000B9EC09
:100AEC00F0EDA3F09000BB74FFC39CF0E49DA3F069
:100AFC008043EE2456FEEF34FFFF9000DBEEF0EF68
:100B0C00A3F09000DBE0C0E0A3E0C0E09000031293
:100B1C002EFFAE82AF83158115819000B7EEF0EFFA
:100B2C00A3F09000B974FFC39EF0E49FA3F0900073
:100B3C00BBE4F0A3F09000DEE0FEA3E09000B7E091
:100B4C00FDA3E09000B9E0FCA3E09000BBE0FBA3A8
:100B5C00E09000D7EDF09000D8ECF09000D9EBF0DD
:100B6C008E821209E49000DDE06003020A3222E575
:100B7C00829000E2F09000E1E0FFBF01379000E2CC
:100B8C00E0FE75F002A424BDFC740035F0FD90006D
:100B9C00E0E0FB7A008C828D83EBF0EAA3F07D0021
:100BAC009000DBEBF0EAA3F09000DD04F08E828D78
:100BBC0083020A47EF70209000E2E0FF75F002A478
:100BCC0024BDF582740035F0F583E4F0A3F07E00CB
:100BDC008F828E830209BD22758200122926E5823E
:100BEC009001CEF0758201122926E582900213F055
:100BFC007E007F00C3EE9408EF64809480505DEE1D
:100C0C002494FCEF3400FD8E0374022BF582C00794
:100C1C00C006C005C004C003122926AA82D003D086
:100C2C0004D005D006D0078C828D83EAF0EE249B8D
:100C3C00FCEF3400FD740C2BF582C007C006C00518
:100C4C00C004122926AB82D004D005D006D0078C64
:100C5C00828D83EBF00EBE009B0F8098229001CE0C
:100C6C00E0900176F07582001228F0900213E0906B
:100C7C000176F07582011228F07E007F00C3EE949D
:100C8C0008EF64809480504D8E0574022DFCEE2488
:100C9C0094F582EF3400F583E0900176F08C82C0FD
:100CAC0007C006C0051228F0D005D006D007740C7A
:100CBC002DFDEE249BF582EF3400F583E090017658
:100CCC00F08D82C007C0061228F0D006D0070EBEE9
:060CDC0000AB0F80A8220E
:100CE200AF83E5829000E3F0EFA3F09000E3E0FE33
:100CF200A3E0FFEE4F6032E5A104F5A1E5A104F502
:100D0200A1E5A104F5A1E5A104F5A1E5A104F5A1E0
:100D1200E5A104F5A1E5A104F5A11EBEFF011F9006
:100D220000E3EEF0EFA3F080CA9000E3EEF0EFA351
:100D3200F022AF83E5829000E5F0EFA3F09000E5AA
:100D4200E0FEA3E0FFEE4F601D9003E8C007C0067F
:100D5200120CE2D006D0071EBEFF011F9000E5EE86
:0F0D6200F0EFA3F080DF9000E5EEF0EFA3F022BA
:090D7200C007AF82DFFED00722AA
:100D7C007F08C58233D20092000000000000000002
:100D8C0000000000C200000000000000DFE622901E
:100D9C0000F074E7F07400A3F0C2AF7F099000F08C
:100DAC00E0FDA3E0FE8D828E83E0FC9000F07401E8
:100DBC002DF0E43EA3F08C82C007120D7CD007DF2F
:100DCC00DCD2AF900119020CE29000F074E7F074E1
:100DDC0000A3F07F099000F0E0FDA3E0FE8D828E71
:100DEC0083E4F09000F0E02401F0A3E03400F0DFA5
:100DFC00E4020D9BE5829000F5F0E0FF7E00C00759
:100E0C00C006900003122EFFAE82AF8315811581B0
:100E1C00EE24E7FEEF3400FF9000F0EEF0EFA3F0CD
:100E2C009000F2E08E828F83F09000F0E02401F0CD
:100E3C00A3E03400F09000F0E0FEA3E0FF9000F39C
:100E4C00E08E828F83F09000F0E02401F0A3E03478
:100E5C0000F09000F0E0FEA3E0FF9000F4E08E8242
:100E6C008F83F022E5829000F8F09000F6E0FF23EB
:100E7C00235403FE53073F9000F7E0FD8DF005F07F
:100E8C00EF800225E0D5F0FBFF8DF005F0743F807C
:100E9C000225E0D5F0FB8F04C39CFDBE0002800A46
:100EAC00BE0102801EBE024D80329000F8E0FE9022
:100EBC0000F2EDF09000F3EFF09000F4E4F08E828D
:100ECC00020E009000F8E0FE9000F2E4F09000F3C7
:100EDC00EDF09000F4EFF08E82020E009000F8E03E
:100EEC00FE9000F2EFF09000F3E4F09000F4EDF0DF
:100EFC008E82020E0022E5829000F9F0E0FF900055
:100F0C00F2E4F09000F3F09000F4F08F82020E0007
:100F1C00E5829000FAF0E0FFBF8800400B8F06EEF0
:100F2C0024789000FAF0804CBF8000402690023963
:100F3C00E0FE8F05ED2480F5F005F07401800225AC
:100F4C00E0D5F0FBFD4206900239EEF09000FAE499
:100F5C00F08021EF903423939000FAF0E0FF7001C1
:100F6C0022EF30E70F900239E04402FEF09000FAD5
:100F7C00747F5FF09000FAE0FF7E03EE2438F58278
:100F8C00E43402F583E0FDB50701220EBE080040F3
:100F9C00EA7F03EF2438FDE43402FE8D828E83E079
:100FAC0070159000FAE08D828E83F0900112740817
:100FBC00F09002380216F90FBF080040D622E582E5
:100FCC009000FBF0E0FFBF8800400B8F06EE24780A
:100FDC009000FBF0804DBF80004027900239E0FE6E
:100FEC008F05ED2480F5F005F07401800225E0D525
:100FFC00F0FBF4FD5206900239EEF09000FBE4F0A9
:10100C008021EF903423939000FBF0E0FF700122DD
:10101C00EF30E70F900239E054FDFEF09000FB74C6
:10102C007F5FF09000FBE0FF7E03EE2438FCE4349D
:10103C0002FD8C828D83E0B507068C828D83E4F0F3
:10104C000EBE080040E49001127408F090023802C1
:10105C0016F9E5829000FCF0E0FFF582C007120F54
:10106C001CD0078F82020FCA7F07EF2438F582E469
:10107C003402F583E4F0DFF29001127408F0900270
:10108C00380216F9AFF0AE83E5829000FDF0EEA3C6
:10109C00F0EFA3F09000FDE0FDA3E0FEA3E0FF8DD8
:1010AC00828E838FF012303DFC60230DBD00010E4B
:1010BC009000FDEDF0EEA3F0EFA3F08C82C007C022
:1010CC0006C00512105ED005D006D00780D1900066
:1010DC00FDEDF0EEA3F0EFA3F022E582900100F01D
:1010EC00E0900241F09001127403F090024002165D
:1010FC00F9900241E4F09001127403F09002400266
:10110C0016F9E582900101F0E0F5821210E602106A
:10111C00FDE582900102F0900244E0FF900102E0B4
:10112C004207900244EFF09001127405F0900243D4
:10113C000216F9E582900103F0900244E0FF900161
:10114C0003E0F45207900244EFF09001127405F0A2
:10115C009002430216F9E582900105F0E0900245F9
:10116C00F0900104E0900246F09001127405F090AA
:10117C0002431216F9900245E4F0900246F022E583
:10118C0082900106F0E0900247F09001127405F095
:10119C009002431216F9900247E4F022E582900186
:1011AC0007F0900249E0FF900107E04207900249E6
:1011BC00EFF09001127404F09002480216F9E582E7
:1011CC00900108F0900249E0FF900108E0F452070A
:1011DC00900249EFF09001127404F090024802164C
:1011EC00F9E58290010AF0E090024AF0900109E0E2
:1011FC0090024BF09001127404F09002480216F920
:10120C00C007AF8205A290000015A2850F82851041
:10121C0083E493A3A5DFFAD00722900111E5DBF05C
:10122C00E0FFBF080280030215A3900007E0FE7FD9
:10123C0000900006E07C004207EC420690010BEFA8
:10124C00F0EEA3F0900111E4F0900001E0FD9001AC
:10125C000DF0900000E0FC5460600990011174FFE7
:10126C00F00215A9EDFC24F4500302159BEC240AA2
:10127C0083F582EC241083F583E4736E389BB99B61
:10128C00F89F9B072CA9A9151415141513121514E6
:10129C00141515900003E0FDBD01028013BD020280
:1012AC008021BD0302802FBD220302135602137945
:1012BC0090010F74A3F07434A3F09001117412F028
:1012CC0002137F90010F74B5F07434A3F0900111E8
:1012DC007429F002137F900002E0FD24FB404CEDDA
:1012EC002D9012F17380088012801C802680309023
:1012FC00010F749EF07435A3F0803A90010F74A224
:10130C00F07435A3F0802E90010F74BAF07435A3ED
:10131C00F0802290010F74CCF07435A3F0801690FD
:10132C00010F74E0F07435A3F0800A90010F74CCB7
:10133C00F07435A3F090010FE0FCA3E0FD8C828DDE
:10134C0083E493FC900111F08029900002E0701569
:10135C0090010F74DEF07434A3F090359DE49390FB
:10136C000111F0800E90011174FFF08006900111B4
:10137C0074FFF0900111E0FDBDFF030215A98D046F
:10138C007D00C3EC9FED9E500890010BECF0EDA39B
:10139C00F090010BE0FEA3E0FF8E048F05C3EC94EC
:1013AC0008ED9400920140067C087D0080048E04B8
:1013BC008F05900111ECF08C8212120C8C067F00C0
:1013CC0090010BE0FBA3E0FDEBC39EFBED9FFD90BA
:1013DC00010BEBF0EDA3F090010FE0FEA3E0FF900A
:1013EC00010FEC2EF0E43FA3F00215A9900002E0EF
:1013FC00FF90010BF0E4A3F00215A990010EE09010
:10140C000000F090010BE0FEA3E0FFC3EE9401EFAF
:10141C00940050030215A99001117401F00215A952
:10142C00900002E0FF90010EF00215A9900000E080
:10143C00541F7037900003E0FE7F00900002E0FD27
:10144C007C004207EC4206BF0118BE00159034BC6C
:10145C00E493FF30E5030215A990011174FFF0022B
:10146C0015A990011174FFF00215A9900000E0FF7E
:10147C0053071F7E00BF022CBE0029900004E0FF22
:10148C00BF02028005BF8113800653D4730215A9D5
:10149C0074BC55D24402F5D20215A990011174FF07
:1014AC00F00215A990011174FFF00215A99000002B
:1014BC00E0541F7037900003E0FE7F00900002E0C4
:1014CC00FD7C004207EC4206BF0118BE00159034AB
:1014DC00BCE493FF30E5030215A990011174FFF0F1
:1014EC000215A990011174FFF00215A9900000E0FB
:1014FC00FF53071F7E00BF0261BE005E900003E039
:10150C00FE7F00900002E0FD7C004207EC4206EFFB
:10151C004E703F900005E0FE7F00900004E0FD7CE3
:10152C00004207EC4206BF0205BE00028008BF81E4
:10153C0019BE0016800A747F55D4440CF5D4805D16
:10154C0074BF55D24403F5D2805390011174FFF04F
:10155C00804B90011174FFF0804390011174FFF0E7
:10156C00803B900000E4F0900001F090010BE0FE55
:10157C00A3E0FF8E048F05C3EC9402ED94004008A9
:10158C009001117402F08015900111EEF0800E9014
:10159C00011174FFF0800690011174FFF09001119D
:1015AC00E0FFBFFF0A90010D74FFF075DCCF22EF56
:1015BC0024F740068FDD75DCC02275DD0075DCC0BC
:1015CC002290010DE0FFBF0502805CBF066D90010B
:1015DC000BE0FEA3E0FF8E048F05C3EC9408ED94A2
:1015EC0000920240067C087D0080048E048F058CDE
:1015FC008212120C8C067F0090010BE0FBA3E0FD25
:10160C00EBC39EFBED9FFD90010BEBF0EDA3F09077
:10161C00010FE0FEA3E0FF90010FEC2EF0E43FA3DE
:10162C00F08CDD63DC4022E5E35480FF90010BE09D
:10163C00FDA3E0ED4FF5E375DC022275DD0075DCF2
:10164C00022275DD0043DC022230D95CE5D9540F4F
:10165C00FFADD95305307E00BD0005BE00028018D9
:10166C00BD1005BE0002803EBD2005BE0002801CE0
:10167C00BD3033BE00308028BF00028005BF02267B
:10168C00800512164E801F12176D801ABF00028043
:10169C0005BF011280051215CD800B12175F800655
:1016AC00BF0003121226C2D930D80F75DC021217F4
:1016BC005675E300C2DAC2D9C2D810DA0122E5DAD3
:1016CC0020E20375D8FF2275E22975D181E4F5EC8F
:1016DC00F5ED75DC0212173D43E10743D81FD2EA42
:0616EC00D2AF75DD002203
:1016F2001216D375D30022AF83E582900113F0EF67
:10170200A3F02003FD900113E0FEA3E0FF9001127D
:10171200E0FD7C00C3EC9D501AEC240AFAE434008C
:10172200FBEC2EF582E43FF583E0F98A828B83F0AD
:101732000C80E18DD3D20353D2FC2275EE0A75EFF1
:101742000075E41475E50075D21275D41075EA407F
:1017520075EB082275D21275D410C2032275D3001C
:1017620074FC55D24402F5D2C2032222AFF0AE83FA
:10177200E58290011FF0EEA3F0EFA3F090011EE0CE
:10178200FF7E00740F5FFCC0047410C0E0E4C0E090
:101792008F828E83123262AE8215811581D00490BF
:1017A200011FE0FBA3E0FDA3E0FFEC9035FA938B71
:1017B200828D838FF0122EE474012BF9E43DFA8FAF
:1017C2000489828A838CF0E4122EE474022BF9E4F9
:1017D2003DFA8F04EE9035FA9389828A838CF01257
:1017E2002EE474032BFBE43DFD8B828D838FF0E4AA
:1017F200022EE4903FFAE493FF903FFCE493FE90C4
:101802003FFDE493FD903FFEE493FC903FFFE493A1
:10181200FB90011EEEF090025E75F000C007C0055D
:10182200C004C00312176ED003D004D00590011E6D
:10183200EDF090025A75F000C004C00312176ED08A
:1018420003D00490011EECF090025675F000C00324
:1018520012176ED00390011EEBF090025275F00049
:1018620012176ED00790011EEFF090024E75F00035
:1018720002176E900122E5DBF0E0FFBF0802800351
:10188200021D8C900007E0FE7F00900006E07C00C5
:101892004207EC4206900118EFF0EEA3F09001220D
:1018A200E4F0900001E0FD90011AF0900000E05495
:1018B200606058900000E0FC5304607B00BC20058F
:1018C200BB0002800FBC403ABB003790012274FF7C
:1018D200F0021D92BD2003021D92BD21028005BDB2
:1018E2002217800F1220B6AB82AC83900122EBF05C
:1018F200021D921220E1021D9290012274FFF00259
:101902001D9290012274FFF0021D92EDFC24F4500E
:1019120003021D84EC240A83F582EC241083F583F0
:10192200E473573E841284FE3C840D3292921D1B56
:101932001D1C1D1A191D1B1B1D1D900262E4F09037
:101942000003E0FDBD0102800DBD02028024BD0343
:1019520002803B021A1990011C7428F07433A3F020
:1019620090333AE493FC740193FD900122ECF0026F
:101972001A1F90011C743CF07433A3F09033DFE41F
:1019820093FC740193FD900122ECF0021A1F900067
:1019920002E0701B90011C74E1F07433A3F09033E9
:1019A200E5E493FC740193FD900122ECF0806E90CB
:1019B2000002E0FDBD011B90011C7403F07434A30E
:1019C200F0903421E493FC740193FD900122ECF039
:1019D200804B900002E0FDBD021B90011C74E7F0F9
:1019E2007433A3F0903401E493FC740193FD9001ED
:1019F20022ECF08028900002E0FDBD03209001154A
:101A0200744CF07402A3F0E4A3F090026204F0902C
:101A120001227416F0800690012274FFF0900122D8
:101A2200E0FDBDFF03021D928D047D00C3EC9FED1E
:101A32009E5008900118ECF0EDA3F0900118E0FE22
:101A4200A3E0FF8E048F05C3EC9408ED940092048A
:101A520040067C087D0080048E048F05900122ECF4
:101A6200F0900262E0FFBF013C900177744CF07489
:101A720002A3F0E4A3F090017AECF0E4A3F090006A
:101A82000075F000C004122B16D004900115E0FD81
:101A9200A3E0FEA3E0FF900115EC2DF0E43EA3F0DD
:101AA200EFA3F0803B90011CE0FEA3E0FF900177E2
:101AB200EEF0EFA3F07480A3F090017AECF0E4A3CF
:101AC200F090000075F000C004122B16D0049001B3
:101AD2001CE0FEA3E0FF90011CEC2EF0E43FA3F01B
:101AE2007F00900118E0FDA3E0FEEDC39CFDEE9F98
:101AF200FE900118EDF0EEA3F0021D92900002E0BC
:101B0200FF900118F0E4A3F0021D9290011BE090F7
:101B12000000F0900118E0FEA3E0FFC3EE9401EF95
:101B220094005003021D929001227401F0021D9252
:101B3200900002E0FF90011BF0021D92900000E075
:101B4200541F7037900003E0FE7F00900002E0FD1A
:101B52007C004207EC4206BF0118BE0015903343D9
:101B6200E493FF30E503021D9290012274FFF0021C
:101B72001D9290012274FFF0021D92900000E0FF7E
:101B820053071F7E00BF0205BE00028002807890CC
:101B92000004E0FFBF0102805FBF02028049BF0371
:101BA200028033BF0402801DBF81028040BF8202D7
:101BB200802ABF83028014BF844474BC55DE440271
:101BC200F5DE021D9253DE73021D9274BC55D6449B
:101BD20002F5D6021D9253D673021D9274BC55D4DF
:101BE2004402F5D4021D9253D473021D9274BC5563
:101BF200D24402F5D2021D9253D273021D92900179
:101C02002274FFF0021D9290012274FFF0021D92D5
:101C1200900000E0541F7051900003E0FE7F00909E
:101C22000002E0FD7C004207EC4206BF0132BE002A
:101C32002F903343E493FF30E51DE5A220E7FB75C7
:101C4200A15575A1AA75A9C143870275A15575A1B0
:101C5200AA75A900021D9290012274FFF0021D9242
:101C620090012274FFF0021D92900000E0FF5307E2
:101C72001F7E00BF0205BE00028003021D4F9000BE
:101C820003E0FE7F00900002E0FD7C004207EC4290
:101C920006EF4E6003021D47900005E0FE7F0090B4
:101CA2000004E0FD7C004207EC4206BF0106BE00D4
:101CB20003021D35BF0205BE00028063BF0305BEDD
:101CC20000028047BF0405BE00028029BF8105BE15
:101CD20000028055BF8205BE00028039BF8305BE67
:101CE2000002801CBF8456BE005374BF55DE4403FD
:101CF200F5DE021D92747F55DE440CF5DE021D9264
:101D020074BF55D64403F5D6021D92747F55D6444E
:101D12000CF5D6807B74BF55D44403F5D48071741E
:101D22007F55D4440CF5D4806774BF55D24403F573
:101D3200D2805D747F55D2440CF5D280539001223B
:101D420074FFF0804B90012274FFF08043900122D7
:101D520074FFF0803B900000E4F0900001F09001ED
:101D620018E0FEA3E0FF8E048F05C3EC9402ED940D
:101D72000040089001227402F08015900122EEF0DA
:101D8200800E90012274FFF0800690012274FFF011
:101D9200900122E0FFBFFF0A90011A74FFF075DC88
:101DA200CF22EF24F740068FDD75DCC02275DD00FF
:101DB20075DCC02290011AE0FFBF0503021E93BF2B
:101DC20006028003021EA7900118E0FEA3E0FF8E28
:101DD200048F05C3EC9408ED9400920540067C083C
:101DE2007D0080048E048F05900262E0FFBF0145F2
:101DF200900115E0FDA3E0FEA3E0FF900177EDF076
:101E0200EEA3F0EFA3F090017AECF0E4A3F09000DF
:101E12000075F000C004122B16D004900115E0FDED
:101E2200A3E0FEA3E0FF900115EC2DF0E43EA3F049
:101E3200EFA3F0803B90011CE0FEA3E0FF9001774E
:101E4200EEF0EFA3F07480A3F090017AECF0E4A33B
:101E5200F090000075F000C004122B16D00490011F
:101E62001CE0FEA3E0FF90011CEC2EF0E43FA3F087
:101E72008C067F00900118E0FBA3E0FDEBC39EFB04
:101E8200ED9FFD900118EBF0EDA3F08CDD63DC40DB
:101E920022E5E35480FF900118E0FDA3E0ED4FF549
:101EA200E375DC022275DD0075DC022275D3007455
:101EB200FC55D24402F5D22290011AE0FFBF200D58
:101EC20030DE1012207675DD0085DCDC2275DD0047
:101ED20043DC022220D903021F98E5D9540FFFAD3B
:101EE200D95305307E00BD0005BE0002801CBD1026
:101EF20005BE00028045BD2005BE00028053BD30F4
:101F020006BE0003021F7D021F96EFFE24FB500354
:101F1200021F96EE2E2E901F1C73021F2B021F967D
:101F2200021F31021F37021F96121EBA021F96129B
:101F32002302021F961228D8021F96EFFE24FB40AE
:101F420053EE2E901F4973804B8049804780458015
:101F520043EFFE24FB403DEE2E901F5F738008800E
:101F62000B800E8011802D121DB68028121EAE80AD
:101F7200231222F1801E1228C78019EFFE24FB4093
:101F820013EE2E901F8973800880098007800580D8
:101F920003121875C2D930D82075DC0275D21275B9
:101FA200D41275D61275E300C2DAC2D9C2D8900132
:101FB2001BE4F012238812206C10DA028020E5DA8A
:101FC20030E21EE5A220E7FB75A15575A1AA75A90D
:101FD200C143870275A15575A1AA75A9002275D8BA
:101FE200FF2275E20053E27F43E22975E30053E2E8
:101FF200BF53D1FB75D18043D1012243E10443E1B8
:102002000243E10143D81FD2EAD2AF227E087F0009
:102012008EEE8FEF7E107F008EE48FE57E307F00A4
:102022008EE68FE775EBCC75D21275D41275D61287
:0F2032007E007F008EEC8FED75EA4075DC022298
:10204200900147E4F0900148F01217F5121FE412D4
:10205200200E121FFD75DD0075D30075D50075D7F2
:10206200009005DCE4F5F0022DC390026BE4F090E1
:10207200026DF0227F00C3E5DB9407920640067DE5
:10208200077E008004ADDB7E008F037C00C3EB9DE6
:10209200EC64808EF063F08095F05017EF2464FDBD
:1020A200E43402FE8F82758300E0FC8D828E83F021
:1020B2000F80C3227F008F057E00C3ED9407EE944C
:1020C2000050188F057E00EF2464F582E43402F597
:1020D20083E0FC8D828E83F00F80DB9000072290DC
:1020E2000002E0FF90026EF0E020E050900264E017
:1020F200FCA3E0FDA3E0FEA3E0FFBCB03FBD043CB7
:10210200BE0039BF003675E200C2AF75890090018A
:102112004CE4F07438A3F090C350122E7490C35064
:10212200122E7490014CE0FEA3E0FFC007C0068EA1
:10213200828F83120069D006D00780FE2290014E62
:10214200E4F090026EE0600690014E7401F090019E
:102152004EE0F5822290026DE0701890026FE0FF6F
:10216200E060108FD553D4FC90026D7401F09002A0
:102172006FE4F022AF8290026EE060617D007E002B
:1021820090026DE060240DBD00010E900005C007B5
:10219200C006C005122E74D005D006D007C3ED9438
:1021A20050EE94C340DA7582002290026FE0FEBEC8
:1021B200200050207D0074402EFEE43DFDEE2410F0
:1021C200F582ED3400F583EFF090026FE02401F028
:1021D20075820122C007122157D007809F758200A5
:1021E20022AFF0AE83E582900151F0EEA3F0EFA3AF
:1021F200F090026EE070030222B990014FE0FEA35C
:10220200E0FFC3E49E74808FF063F08095F040039A
:102212000222B97E007F0090026DE060200EBE00B7
:10222200010F900005C007C006122E74D006D00719
:10223200C3EE9450EF94C340DE75820022900151A8
:10224200E0FDA3E0FEA3E0FF90014FE0FBA3E0FC72
:10225200C3E49B74808CF063F08095F0509C9002F4
:102262006FE0FABA200050498A017A00744029F9D5
:10227200E43AFAE92410F9EA3400FA8D828E838F67
:10228200F012303DF8A3AD82AE83900151EDF0EE35
:10229200A3F0EFA3F089828A83E8F090026FE02432
:1022A20001F01BBBFF011C90014FEBF0ECA3F0808F
:1022B2009F1221570221FC7582002290026BE0F5E9
:1022C200822290026BE07003F5822290026CE0247D
:1022D20010F582E43400F583E0FF90026CE004F034
:1022E20090026BE014F0E0700353D4F38F822275F6
:1022F200D50074FC55D44402F5D490026DE4F0226A
:1023020030DE1990026BE5DBF090026CE4F0900293
:102312006BE0600874F355D44408F5D422AF83E52A
:1023220082900154F0EFA3F0900154E0FEA3E0FF8D
:10233200900275EEF0EFA3F022AF83E58290015692
:10234200F0EFA3F0900156E0FEA3E0FF900273EEDF
:10235200F0EFA3F022AF83E582900158F0EFA3F0F3
:10236200900158E0FEA3E0FF900277EEF0EFA3F0B9
:1023720022900149E0F5822290014AE0F582229002
:10238200014BE0F58222900270E4F0900272F0902C
:102392000147F0900148F02290015AE4F090011BAD
:1023A200E06008900270E090015AF090015AE0F566
:1023B2008222AFF0AE83E58290015BF0EEA3F0EFF4
:1023C200A3F090015BE0FDA3E0FEA3E0FF74012D0A
:1023D200FAE43EFB8F048A828B838CF012303DFA42
:1023E2005302F07C00BA9019BC001674032DFDE470
:1023F2003EFE8D828E838FF012303D600475820224
:102402002290015BE0FDA3E0FEA3E0FF74012DFA40
:10241200E43EFB8F048A828B838CF012303DFA53A8
:1024220002F07C00BA9019BC001674032DFDE43E44
:10243200FE8D828E838FF012303D700475820122F0
:1024420090015BE0FDA3E0FEA3E0FF0DBD00010EE5
:102452008D828E838FF012303DFD74F05DFC7E0024
:10246200BC8007BE0004758201225305F07F00BDC7
:10247200B007BF0004758203227582002212239ADC
:10248200E582700122900270E0FF7E009001777475
:1024920030F07400A3F0E4A3F090017AEFF0EEA321
:1024A200F090012775F000122B16900147E4F0908E
:1024B2000270E0900148F053D6F3900270E4F0907D
:1024C200015EF090015EE0FF900148E0FEC3EF9EE6
:1024D200400122EF2427FFE43401FE8F057F008DA7
:1024E200828E838FF0C007C006C0051223B4AC826F
:1024F200D005D006D007BC0154900275E0F5F0A3D8
:10250200E045F070030226B474022DF9E43EFA8F1E
:102512000389828A838BF012303DF953017F740163
:102522002DF8E43EFA8F0388828A838BF012303DC5
:10253200F853000FC00112253D800D900275E0C0D6
:10254200E0A3E0C0E088822215810226B4BC020228
:102552008003022608900273E0F5F0A3E045F070D4
:10256200030226B474012DF516E43EF5178F188583
:1025720016828517838518F012303DF89001497450
:102582000F58F074022DF519E43EF51A8F1B8519C8
:1025920082851A83851BF012303DF990014A747FBF
:1025A20059F074032DF9E43EFA8F0389828A838BF2
:1025B200F012303DF890014B747F58F089828A8383
:1025C2008BF012303DF953017F851982851A83857C
:1025D2001BF012303DFB53037F85168285178385DE
:1025E20018F012303DFA53020FC001C0031225F455
:1025F200800D900273E0C0E0A3E0C0E08A82221561
:102602008115810226B4BC030280030226B4900223
:1026120077E0F5F0A3E045F070030226B474012DD3
:10262200F519E43EF51A8F1B851982851A83851BDD
:10263200F012303DF9900149740F59F074022DF8EF
:10264200E43EF98F04888289838CF012303DFB903E
:10265200014A747F5BF074032DFDE43EFE8D828E91
:10266200838FF012303DFB90014B747F5BF08D82C3
:102672008E838FF012303DFD53057F888289838CD3
:10268200F012303DF853007F851982851A83851B2D
:10269200F012303DFF53070FC005C0001226A38081
:1026A2000D900277E0C0E0A3E0C0E08F82221581A6
:1026B200158190015EE0FF2404F00224C5AFF0AE64
:1026C20083E582900160F0EEA3F0EFA3F07E007F3D
:1026D20000900272E060240EBE00010F90000AC05A
:1026E20007C006122E74D006D0078E048F05C3ECE5
:1026F2009410ED942740DA7582002290015FE0FF8A
:10270200BF043A900160E0FCA3E0FDA3E0FE90016B
:1027120077ECF0EDA3F0EEA3F090017AEFF0E4A3F2
:10272200F090007075F000C007122B16D0078FD7FB
:1027320053D6FC9002727401F075820122758200F8
:1027420022E582900165F09001237409F090016501
:10275200E04490900124F0900163E0547F900125C1
:10276200F0900164E0547F900126F090015F7404C0
:10277200F090012375F0000226BFE582900167F018
:102782009001237408F0900167E04480900124F0E6
:10279200900166E0547F900125F0900126E4F090CC
:1027A200015F7404F090012375F0000226BFE582F8
:1027B20090016AF0900123740BF090016AE044B03A
:1027C200900124F0900168E0547F900125F090017F
:1027D20069E0547F900126F090015F7404F090014B
:1027E2002375F0000226BFE58290016FF090016B25
:1027F200E0FEA3E08E04A2E7CC33CC33CC540153E9
:10280200047F53067F90016FE0FF9001687462F0CD
:10281200900169EEF08F82C007C0041227B0D00485
:10282200D0079001687463F0900169ECF08F82C068
:10283200071227B0D00790016DE0FDA3E08D03A23F
:10284200E7CB33CB33CB540153037F53057F900146
:10285200687406F0900169EBF08F82C007C0051220
:1028620027B0D005D0079001687426F0900169ED79
:10287200F08F820227B0E582900171F0900170E042
:10288200FF7E0074C02FFF741F3EFE8F0553057F2D
:10289200EEA2E7CF33CF33CF540153077F900171BC
:1028A200E044E0900172F0900173EDF0900174EF5A
:1028B200F0900175E4F090015F7404F0900172757C
:1028C200F0000226BF75D70074FC55D64402F5D637
:1028D200900272E4F02230DE13900270E5DBF09099
:0D28E2000271E4F074F355D64408F5D622D7
:1028F000AF82BF800040012275A15575A1AA43B1E6
:102900000475A1007585C0EF2FF584900176E0F580
:102910008EE58630E60375869A75A15575A1AA5392
:10292000B1FB75A10022AF827585C0EF2FF58475CC
:06293000868E858E8222D6
:10293600C022C0E0C0F0C082C083C007C006C00588
:10294600C004C003C002C001C000C0D075D00012D0
:102956001ED6D0D0D000D001D002D003D004D005EE
:10296600D006D007D083D082D0F0D0E0D02232C0BB
:1029760022C0E0C0F0C082C083C007C006C005C048
:1029860004C003C002C001C000C0D075D00030989A
:1029960005123146C298309905123186C299D0D0B7
:1029A600D000D001D002D003D004D005D006D00785
:1029B600D083D082D0F0D0E0D02232C022C0E0C096
:1029C600F0C082C083C007C006C005C004C003C0F3
:1029D60002C001C000C0D075D00030C0051231D48D
:1029E600C2C030C105123214C2C1D0D0D000D0014D
:1029F600D002D003D004D005D006D007D083D08231
:102A0600D0F0D0E0D02232C022C0E0C0F0C082C0F8
:102A160083C007C006C005C004C003C002C001C011
:102A260000C0D075D00090027BE0FEA3E0FFC00797
:102A3600C0068E828F83120069D006D007D0D0D010
:102A460000D001D002D003D004D005D006D007D0E4
:102A560083D082D0F0D0E0D02232C022C0E0C0F0D5
:102A6600C082C083C007C006C005C004C003C00240
:102A7600C001C000C0D075D00090027DE0FEA3E08A
:102A8600FFC007C0068E828F83120069D006D0076A
:102A9600D0D0D000D001D002D003D004D005D006CB
:102AA600D007D083D082D0F0D0E0D02232C022C06E
:102AB600E0C0F0C082C083C007C006C005C004C025
:102AC60003C002C001C000C0D075D000900279E0FA
:102AD600FEA3E04E600E900279E0F8A3E0F583884D
:102AE60082120069D0D0D000D001D002D003D00429
:102AF600D005D006D007D083D082D0F0D0E0D02247
:102B060032122EAF1200DC1200F480FB7582002216
:102B1600AFF0AE83E58290017CF0EEA3F0EFA3F078
:102B260090017CE0F52FA3E0F530A3E0F531AA2F64
:102B3600AB30AC31900177E0F8A3E0F9A3E0FF9069
:102B4600017AE0F532A3E0F533AD32AE33153274D7
:102B5600FFB532021533ED4E6020888289838FF0EF
:102B660012303DFEA3A882A9838A828B838CF0EE65
:102B7600122EE4A3AA82AB8380CF852F8285308371
:102B86008531F022E582FF90365A93FEEF90363279
:102B960093FF70012290017FE0FD701BBF0209EEDA
:102BA600F4FC5292EC529322BF0402800122EEF40E
:102BB600FC5296EC529722BD0214BF0207EE4292D7
:102BC600EE429322BF0439EE4296EE429722BD01B1
:102BD60016BF0208EEF45292EE429322BF0421EE93
:102BE600F45296EE429722BD0316BF0208EE4292B9
:102BF600EEF4529322BF0408EE4296EEF4FE52978C
:102C060022AF82BF0102800FBF02028013BF030200
:102C16008017BF0425801BE5C620E21E539DFB22BC
:102C2600E5C620E315539DF722E5C630E20C539D19
:102C3600FB22E5C630E303539DF722E582FF90367B
:102C46000A93FEEF90365A93FDEF90363293FF705B
:102C560003F58222EE600D8E82C007C005122C0796
:102C6600D005D0077E00BF0202800ABF030280099A
:102C7600BF040C8008AE908006AEA08002AEB0ED18
:102C86005E60047582012275820022E582FF90361D
:102C96000A93FEEF90365A93FDEF90363293FFEE8D
:102CA600600D8E82C007C005122C07D005D007A282
:102CB600AFE433FEC2AFBF0202800ABF0302801731
:102CC600BF04368024900180E07007EDF4FF529037
:102CD6008027ED42908022900180E07007EDF4FF9E
:102CE60052A08015ED42A08010900180E07007EDA3
:0F2CF600F4FF52B08003ED42B0EE6002D2AF2285
:102D0600C0D075D00808B8000D09B900090ABA0084
:102D1600050BBB00010CD0D032A2AFC2AFA808A9E8
:102D260009AA0AAB0BAC8A8588F092AF30F512740B
:102D3600012C600D08B8000909B900050ABA00019E
:102D46000BC3EC9406FCECC313FC75F07DE8A4F809
:102D5600ADF075F07DE9A42DF9E435F0FD75F07D53
:102D6600EAA42DFAE435F0FD75F07DEBA42DFB7D8C
:102D760000EC28F582E93DF583EA3DF5F0EB3D22CE
:102D8600A2AFC2AFA808A909AA0AAB0BAC0C92AFB6
:102D960075F020E8A4A8F075F020E9A428F582A82B
:102DA600F075F020EAA428F583A8F075F020EBA4CE
:102DB60028F9A8F075F020ECA42889F02285822352
:102DC60085832485F025F526122D1F858227858388
:102DD6002885F029F52AE523452445254526700151
:102DE60022A823A924AA25AB2685272B85282C854E
:102DF600292D852A2EE8494A4B60DBC003C002C054
:102E060001C000122D1FAC82AD83AEF0FFD000D002
:102E160001D002D003ECC3952BFCED952CFDEE956D
:102E26002DFEEF952EFFC3EC94E8ED9403EE94008F
:102E3600EF940040A118B8FF0919B9FF051ABAFFA7
:102E4600011B882389248A258B2674E8252BF52BDC
:102E56007403352CF52CE4352DF52DE4352EF52EA1
:102E6600852B27852C28852D29852E2A8087AE82BD
:102E7600AF83C374019EE49F40022200C374029E86
:102E8600FE74009FFF00BE0005BF00020022000086
:102E96000000000000000000000000000000000E1E
:102EA600BE00EB0FBF00ED002275A15575A1AA74F7
:102EB600F855B94406F5B975A100901388122E7419
:102EC600759E5D759D0074F055894402F58953C958
:0D2ED600EF758C06C28DD2A9D28CD2AF222E
:102EE40020F71130F6138883A88220F509F6A88309
:102EF4007583002280FEF280F5F022C01C85811CBF
:102F0400C082C083E5812405F581AF1C0FE51C2434
:102F140003F8A607087600087640E51C24FCFD7E2D
:102F2400007F40E51C2406F9A81C088604E51C243F
:102F3400FCF886038CF0EBA4F709A7F0E51C240643
:102F440004F98704A81C08860374012DFAE43EFEE4
:102F54008A828E838FF012303D8BF0A4FBE51C2413
:102F640003F8740126FDE40836FE0886078D828E78
:102F7400838FF012303DFDE51C24FCF886078DF0AC
:102F8400EFA42B2CF7E51C2406F987060987078E86
:0A2F9400828F83851C81D01C22323D
:012F9F0032FF
:102FA100ABF0A2AFE433FEC2AFE0A37A0833D2B4F0
:102FB1004002C2B47905D9FEC2B4DAF1DBEBEE60AE
:042FC10002D2AF2267
:102FC50022AF82BF0200503EEF75F002A4247BFDC4
:102FD500740235F0FE900182E0FBA3E0FC8D828E49
:102FE50083EBF0ECA3F0BF00028005BF0118800B56
:102FF500900184E024FF9288D2A822900184E0FF0A
:1030050024FF928AD2AA22AF82BF02005028BF00B5
:10301500028005BF01088004C2A88002C2AAEF751C
:10302500F002A4247BFE740235F0FF8E828F837438
:07303500C5F0742FA3F02287
:10303D0020F71430F6148883A88220F507E6A883BC
:10304D0075830022E280F7E49322E022C01C858183
:10305D001CAE82E583FF33E433FD6009C3E49EFBC0
:10306D00E49FFC80048E038F04E51C24FCF808E625
:10307D0030E70FE51C24FCF8C3E496FE08E496FF48
:10308D00800AE51C24FCF88606088607C005C006E4
:10309D00C0078B828C831230C7AE82AF831581152A
:1030AD0081D005ED600DC3E49EFCE49FFD8C828D07
:1030BD008380048E828F83D01C22C01C85811CAE20
:1030CD0082AF837D007C00E51C24FCF808E62354C8
:1030DD0001FB702FE51C24FCF8E626F608E633F616
:1030ED00E51C24FCF8C3EE96EF08965011E51C2460
:1030FD00FCF808E618C313C613C608F680050C8C39
:10310D000580C4E51C24FCF8C3EE96EF0896400D2F
:10311D00E51C24FCF8EEC396FEEF0896FFE51C2493
:10312D00FCF808E618C313C613C608F68D041DEC8B
:09313D0070D18E828F83D01C2218
:1031460090027FE0FF7E000FBF00010E7410C0E00A
:10315600E4C0E08F828E83123059AE8215811581CC
:10316600900280E0FFEEB507012290027FE0248501
:10317600F582E43401F583E599F090027FEEF022C2
:1031860030074A900281E0FF900282E0FEEFB5062A
:1031960005A207C20722900282E02495F582E43454
:1031A60001F583E0F599900282E0FF7E000FBF00F3
:1031B600010E7410C0E0E4C0E08F828E8312305995
:0E31C600AE82AF8315811581900282EEF02259
:1031D400900283E0FF7E000FBF00010E7410C0E078
:1031E400E4C0E08F828E83123059AE82158115813E
:1031F400900284E0FFEEB5070122900283E024A54B
:10320400F582E43401F583E5C1F0900283EEF02207
:1032140030084A900285E0FF900286E0FEEFB50692
:1032240005A208C20822900286E024B5F582E4349F
:1032340001F583E0F5C1900286E0FF7E000FBF0038
:10324400010E7410C0E0E4C0E08F828E8312305906
:0E325400AE82AF8315811581900286EEF022C6
:10326200C01C85811CAE82E583FF33E433FD600917
:10327200C3E49EFBE49FFC80048E038F04E51C24C0
:10328200FCF808E633E433FF600FE51C24FCF8C3C6
:10329200E496FA08E496FE800AE51C24FCF886020D
:1032A200088606C007C005C002C0068B828C831246
:1032B20032D8AC82AE8315811581D005D007EF6D6F
:1032C200600DC3E49CFDE49EFF8D828F8380048C9D
:1032D200828E83D01C22C01C85811CAE82AF837C6F
:1032E200007D007B10EF235401FAEE2EFEEF33FF38
:1032F200EC2CFCED33FDEA6003430401E51C24FCE5
:10330200F8C3EC96ED08964010E51C24FCF8ECC3DB
:1033120096FCED0896FD430601DBCA8E828F83D0B0
:063322001C22758200224E
:1033280012011001EF0201080912C1CA12000102BC
:10333800030112000902A3000401008032080B00F7
:103348000202020100090400000102020100052432
:1033580000100105240100000424020205240600CF
:10336800010705810308004009040100020A000062
:10337800000705020220000007058202200000095C
:1033880004020000010100000924010001090001F4
:1033980003090403000201030000072401000125BA
:1033A8000006240201010006240202020009240387
:1033B80001030102010009240302040101010007BD
:1033C80005030220000005250101010705830220ED
:1033D80000000525010103A3000403090404001AE1
:1033E80003500075007300680026005400750072D1
:1033F800006E002D00360031001A001E0343006FD6
:10340800006E006300650070007400200026002034
:0B3418000043006F00640065001E0010
:1034230000000000000000002A2B2800000000001C
:103433000000000000000000000000000000000089
:103443002C9EB4A0A1A2A434A6A7A5AE362D3738CE
:10345300271E1F20212223242526B333B62EB7B8D7
:103463009F8485868788898A8B8C8D8E8F90919295
:10347300939495969798999A9B9C9D2F3130A3ADE1
:10348300350405060708090A0B0C0D0E0F1011125F
:10349300131415161718191A1B1C1DAFB1B0B5005C
:1034A3001201100100000008891190880001010237
:1034B300030109022900010100804B0904000002F5
:1034C3000301010409211001210122BF0007058125
:1034D300030800010705020308000A05010906A104
:1034E300018501050719E029E715002501750195F7
:1034F300088102750895018103190029E715002643
:10350300FF007508950581000508190129051500B7
:103513002501750195059102750395019103C00578
:103523000C0901A101850219002A3C021500263C61
:1035330002751095018100C005010902A10109016D
:10354300A10085030509190129031500250175014A
:103553009503810275059501810305010930093140
:1035630009381581257F750895038106C0C00501BB
:103573000905A101A1008504050919012908150000
:10358300250175019508810205010930093115816D
:10359300257F750895028102C0C0BF040309041882
:1035A3000377006100670069006D0069006E0061C8
:1035B3000074006F00720012034D0061006300721B
:1035C300006F00500061006400140343004800359D
:1035D300003500320078004800490044001A0348CF
:1035E30000490044002D004B006500790062006F24
:0735F300006100720064009A
:1035FA00303132333435363738394142434445461F
:10360A0000000000000000000000000000000001AF
:10361A000000000000000000000000000000030499
:10362A000000020000000000010101010101010186
:10363A000000020202020202020200000303030364
:10364A000303030300000404040404040404000044
:10365A000102040810204080000001020408102022
:10366A00408000000102040810204080000001028E
:10367A000408102040800000FFFFFFFFFFFFFFFF4C
:10368A00FFFFFF00FFFF0102FFFFFFFFFFFFFFFF3A
:10369A00FFFFFFFFFFFFFFFF03FFFFFFFFFFFFFF2C
:1036AA00072B0B11100F0E20210C7F0100010001C6
:1036BA0000010001000100010001000100010001F8
:1036CA0000010001000100000000000000000000ED
:1036DA0000000000000000000000000000000000E0
:1036EA0000000000000000000000000000000100CF
:1036FA000000000000FFFF010002000100000002BC
:10370A0000FFFFFFFF02000000010002000100FFAE
:03371A00FF0000AD
:10371D000100000000000000020000030000000096
:04372D000400000094
:10373100160363006800650065006E002D0032000D
:083741003200320032000000EA
:1037490000E1000000000800000000000000000087
:0537590000000000006B
:02375E00000069
:04376000C52FC52F7D
:043764000000000061
:04376800000000005D
:00000001FF
